:1000000045C0000060C000005EC000005CC0000091
:100010005AC0000058C0000056C0000054C0000084
:1000200052C0000050C000004EC000004CC0000094
:100030004AC0000048C0000046C0000044C00000A4
:10004000ECC0000040C0000052C000003CC00000F6
:100050003AC000007FC1000036C0000034C000007C
:1000600032C0000030C000002EC000002CC00000D4
:100070002AC0000028C0000026C0000024C00000E4
:1000800022C0000020C000001EC0000011241FBEBE
:10009000CFEFD0E1DEBFCDBF11E0A0E0B1E0EEE9EF
:1000A000F0E100E00BBF02C007900D92A034B10751
:1000B000D9F721E0A0E4B1E001C01D92AC3BB2074A
:1000C000E1F73ED5EAC79CCFE199FECF9FBB8EBB3F
:1000D0006DBBF894E29AE19A78940895E199FECF85
:1000E0009FBB8EBBE09A8DB30895089508951F922B
:1000F0000F920FB60F9211240BB60F922F933F93CE
:100100004F935F936F937F938F939F93AF93BF931F
:10011000EF93FF938CB18093830180917D01909147
:100120007E0120918301FC01EC57FE4F2083019654
:1001300090937E0180937D0180917D0190917E015D
:10014000C39748F184E891E0D1DF23E3FC01AAE4FE
:10015000B1E001900D922A95E1F780914A01823039
:1001600021F480917C01833071F083E3EAE4F1E0D3
:10017000DF011D928A95E9F784E3E4E8F1E0DF010D
:100180001D928A95E9F710927E0110927D0181E01F
:1001900080937F0108C080917D0190917E01892B21
:1001A00011F410927F01FF91EF91BF91AF919F9158
:1001B0008F917F916F915F914F913F912F910F9010
:1001C0000BBE0F900FBE0F901F9018951FBE1BB84F
:1001D00088E98AB986E0809395001092900083E3C5
:1001E00089B980E88FBF08955D9BFECF8CB90895D3
:1001F0000F931F93CF93DF93EC011616170644F469
:100200008C01060F171F8991EFDFC017D107D9F7AF
:10021000DF91CF911F910F9108951F920F920FB60A
:100220000F9211248F939F938091480190914901DF
:1002300001969093490180934801809146019091E5
:100240004701892B49F08091460190914701019621
:100250009093470180934601809142019091430120
:10026000892B49F08091420190914301019690932E
:100270004301809342018091400190914101892B7B
:1002800049F0809140019091410101969093410184
:10029000809340018EEC82BF9F918F910F900FBE93
:1002A0000F901F90189586E083BF8EEC82BF87B7B2
:1002B000816087BF789408958FEF87BB88BB0895CE
:1002C0008FE097E20197F1F700C00000E0E0F0E86E
:1002D00080818823ECF30895CF93C82FF1DFC0937A
:1002E0000080CF910895CF93C82FEADFC09300C05C
:1002F000CF910895613108F060E16150833008F0DA
:1003000082E090E4899F600D1124862F80548068DC
:10031000E3CFCF93DF93EC018881882329F02196E6
:10032000E2DF89918111FCCFDF91CF91089580E8C0
:1003300085BF81E0D1DF88E3CFDF86E0CDDF80E1DC
:10034000CBDF8CE0C9DF8FE19EE40197F1F700C0BD
:10035000000008951F920F920FB60F9211242F9351
:100360003F934F938F939F9384B190E09093B90103
:100370008093B80145B12091B8013091B901942F13
:1003800080E0820F931F9093B9018093B8019F91F1
:100390008F914F913F912F910F900FBE0F901F9013
:1003A000189580B380950895141615065CF4E62F11
:1003B000F72FDC0117964E0F5F1F81918D93E41785
:1003C000F507D9F70895CF92DF92EF92FF920F933E
:1003D0001F93CF93DF93CDB7DEB72A970FB6F8946C
:1003E000DEBF0FBECDBF8AE0E0E1F1E0DE01119695
:1003F00001900D928A95E1F7809144019091450119
:1004000060E871E5DAD590934501809344018091CD
:1004100044019091450160E17EE0CFD56B01E12C74
:10042000F12C8AE0C816D104E104F10454F0C701AC
:10043000B6012AE030E040E050E0E6D5205D2983B7
:1004400002C080E38983C701B6012AE030E040E0C2
:1004500050E0DAD5162F105D1A83809144019091F7
:10046000450160E17EE0A9D5909345018093440168
:100470002091440130914501A9E8B8E8E0D596956E
:100480008795929582958F7089279F7089276C0137
:10049000E12CF12C8AE0C816D104E104F10454F0F7
:1004A000C701B6012AE030E040E050E0ADD5205D64
:1004B0002C8302C080E38C83C701B6012AE030E0C0
:1004C00040E050E0A1D5062F005D0D83409144012E
:1004D000509145019A01A9E8B8E8B1D5969587955C
:1004E000929582958F7089279F7089276CE3689F0A
:1004F0009001699F300D1124CA01821B930B9093C8
:10050000450180934401C0904401D0904501E12C05
:10051000F12C8AE0C816D104E104F10454F0C701BB
:10052000B6012AE030E040E050E06ED5205D2F8338
:1005300002C080E38F83C701B6012AE030E040E0CB
:1005400050E062D5605D6887898180930E011093C9
:100550000D018C8180930C0100930B018F8180939E
:100560000A016093090163E081E0C4DECE010196D7
:10057000D0DE2A960FB6F894DEBF0FBECDBFDF9156
:10058000CF911F910F91FF90EF90DF90CF90089542
:10059000CF93DF93CDB7DEB729970FB6F894DEBFC0
:1005A0000FBECDBF89E0EAE1F1E0DE0111960190D6
:1005B0000D928A95E1F780E090E090DD8983809349
:1005C0000E0181E090E08ADD8A8380930D0182E054
:1005D00090E084DD8C8380930C0183E090E07EDDED
:1005E0008D8380930B0184E090E078DD8F8380938E
:1005F0000A0185E090E072DD8887809309011092FE
:1006000045011092440186E090E068DD809144014C
:1006100090914501909345018093440187E090E0DB
:100620005DDD809144019091450190934501809357
:10063000440188E090E052DD409144015091450131
:10064000382F20E0240F351F3093450120934401BB
:1006500089E090E043DD2091440130914501280F6D
:10066000311D309345012093440163E081E042DE77
:10067000CE0101964EDE29960FB6F894DEBF0FBE6E
:10068000CDBFDF91CF910895CF93DF93CDB7DEB784
:100690002D970FB6F894DEBF0FBECDBF8DE0E3E21D
:1006A000F1E0DE01119601900D928A95E1F761E08B
:1006B00082E020DE809100018983809101018A839C
:1006C000809102018B83809103018C8380910401CE
:1006D0008D83809105018E83809106018F838091A7
:1006E000070188871986CE01019613DE2D960FB675
:1006F000F894DEBF0FBECDBFDF91CF9108956DE0BE
:1007000082E0F8DD80E391E004CE6EE082E0F2DD8D
:1007100085E391E0FECD80E487B98DEA86B986B99C
:10072000369A349A0895CF93DF93CDB7DEB7E39727
:100730000FB6F894DEBF0FBECDBF82E089831A8268
:100740001B8281E090E09D838C8384E08AAB83E010
:100750008BABCE010196C9DC63E370E049DDE39623
:100760000FB6F894DEBF0FBECDBFDF91CF910895D5
:10077000CF93DF93CDB7DEB7E3970FB6F894DEBF24
:100780000FBECDBF82E089831A821B8285E090E094
:100790009D838C8389E090E09F838E8349E050E0C5
:1007A00060E071E0CE010196FFDD84E08AAB83E07A
:1007B0008BABCE01019699DC63E370E019DDE39623
:1007C0000FB6F894DEBF0FBECDBFDF91CF91089575
:1007D0000F931F93CF93DF93E4DD182F20E030E0D9
:1007E000A1E0B0E0E82FF0E001E390E3AD01022EDC
:1007F00002C0440F551F0A94E2F7BA016E237F230B
:1008000064177507B1F440910F0150E04623572358
:100810006417750729F0E901C050DF4F988304C0C1
:10082000E901C050DF4F088380910F016827609372
:100830000F012F5F3F4F28303105C1F680910F0126
:1008400088BB80918201811393DF109382011CDFAA
:10085000DF91CF911F910F91089565DF80914D0138
:1008600090914E019C012150310927303105B8F497
:10087000029731F461E081E03DDD83E434DD78DF2F
:1008800083E3EAE4F1E0DF011D928A95E9F784E36E
:10089000E4E8F1E0DF011D928A95E9F7089580917F
:1008A0004A01811109C080917C01811105C061E07C
:1008B00081E020DD88E517CD089580914D0190916C
:1008C0004E01049709F051C0E1E5F1E089E591E0BE
:1008D00020E030E04191413311F42F5F3F4FE817A2
:1008E000F907C1F72130310509F03FC0809151016E
:1008F000813341F0E2E5F1E081E090E021912133A4
:1009000081F502C080E090E060910F0141E050E08D
:100910009A01082E02C0220F331F0A94E2F72627FD
:1009200020930F01FC01E050FF4F2081213311F48F
:1009300020E301C021E3FC01E050FF4F20838091C0
:100940000F0188BB83E3EAE4F1E0DF011D928A95A1
:10095000E9F784E3E4E8F1E0DF011D928A95E9F725
:10096000089501968830910549F60895CF93DF9355
:10097000CDB7DEB7E3970FB6F894DEBF0FBECDBF9D
:1009800022E029831A821B8226E030E03D832C83FB
:1009900022E030E03F832E836AE070E022D3606380
:1009A00068878063898784E08AAB83E08BABCE0164
:1009B00001969BDB63E370E01BDCE3960FB6F894D3
:1009C000DEBF0FBECDBFDF91CF9108950F931F9370
:1009D000CF93DF9300D000D000D0CDB7DEB78C012D
:1009E00086E0E9E3F1E0DE01119601900D928A952F
:1009F000E1F70436110511F403E610E0C801B6DF93
:100A00006CE081E077DC86E589838AE38A83C8012C
:100A10006AE070E0E6D28C0160636B8380638C8354
:100A200085E28D83CE01019674DC109381010093E1
:100A3000800126960FB6F894DEBF0FBECDBFDF91C2
:100A4000CF911F910F91089566DE369A8FE19EE453
:100A50000197F1F700C0000086B186B96091B80136
:100A60007091B901882777FD8095982FB7D120E044
:100A700030EC4FE754E41CD120E030E048EC52E485
:100A800039D27ED18091BA019091BB018617970728
:100A9000A1F07093BB016093BA0181E090E0909364
:100AA00043018093420190934101809340018091E2
:100AB000BA019091BB018ADF349A0895CF93DF93F6
:100AC000CDB7DEB7EA970FB6F894DEBF0FBECDBF45
:100AD00080910E018CAB80910D018DAB80910C014A
:100AE0008EAB80910B018FAB80910A0188AF809112
:100AF000090189AF1AAE82E089831A821B8287E0DE
:100B000090E09D838C839F838E8347E050E0BE01FD
:100B10006C5C7F4FCE01019647DC84E08AAB83E0BA
:100B20008BABCE010196E1DA63E370E061DBEA961C
:100B30000FB6F894DEBF0FBECDBFDF91CF91089501
:100B400011BA8FEF87BBB8DBF2DBADDBD8DD29DC78
:100B500080FFFDCF83E090E0209148013091490172
:100B600021373240C8F320914401309145012F5F75
:100B70003F4F309345012093440110924901109258
:100B80004801019749F7D3DB21DB1DDC01DD8091B2
:100B90004801909149018137924078F08091440159
:100BA00090914501019690934501809344011092E4
:100BB00049011092480107DC81DF409144015091C6
:100BC00045019A01ABEABAEA3AD2969587959C011B
:100BD000220F331F820F931F4817590719F48AE415
:100BE00091E03BDE8091460190914701843C994021
:100BF00008F442C0E8DB1092470110924601609170
:100C00000E0180E090E060DA60910D0181E090E0FB
:100C10005BDA60910C0182E090E056DA60910B01A2
:100C200083E090E051DA60910A0184E090E04CDAD0
:100C30006091090185E090E047DA8091440190914C
:100C4000450160E086E090E03FDA809144019091B8
:100C5000450160E087E090E037DA809144019091AF
:100C60004501692F88E090E02FDA6091440170918E
:100C7000450189E090E028DA80914201909143019A
:100C8000823E944058F09FDB81E090E090934101D8
:100C9000809340011092430110924201D5DE98DD0D
:100CA00034DD8091BA019091BB0190DE06DE6FCFFA
:100CB0000CD0E6C0DED040F0D5D030F021F45F3F5C
:100CC00019F0C7C0511110C1CAC0EBD098F39923D5
:100CD000C9F35523B1F3951B550BBB27AA27621700
:100CE0007307840738F09F5F5F4F220F331F441F45
:100CF000AA1FA9F333D00E2E3AF0E0E830D091507D
:100D00005040E695001CCAF729D0FE2F27D0660F69
:100D1000771F881FBB1F261737074807AB07B0E8A8
:100D200009F0BB0B802DBF01FF2793585F4F2AF0BE
:100D30009E3F510568F08DC0D7C05F3FECF3983EF1
:100D4000DCF3869577956795B795F7959F5FC9F71B
:100D5000880F911D9695879597F90895E1E0660FA4
:100D6000771F881FBB1F621773078407BA0720F01D
:100D7000621B730B840BBA0BEE1F88F7E095089586
:100D800098D088F09F5790F0B92F9927B751A0F0CD
:100D9000D1F0660F771F881F991F1AF0BA95C9F70F
:100DA00012C0B13081F09FD0B1E008959CC0672F90
:100DB000782F8827B85F39F0B93FCCF386957795BF
:100DC0006795B395D9F73EF49095809570956195A8
:100DD0007F4F8F4F9F4F0895E89409C097FB3EF4D3
:100DE00090958095709561957F4F8F4F9F4F992378
:100DF000A9F0F92F96E9BB279395F69587957795F6
:100E00006795B795F111F8CFFAF4BB0F11F460FFB5
:100E10001BC06F5F7F4F8F4F9F4F16C0882311F00D
:100E200096E911C0772321F09EE8872F762F05C021
:100E3000662371F096E8862F70E060E02AF09A95BC
:100E4000660F771F881FDAF7880F9695879597F9B1
:100E5000089597F99F6780E870E060E008959FEF3C
:100E600080EC089500240A94161617061806090641
:100E7000089500240A941216130614060506089510
:100E8000092E0394000C11F4882352F0BB0F40F498
:100E9000BF2B11F460FF04C06F5F7F4F8F4F9F4FD8
:100EA000089557FD9058440F551F59F05F3F71F05A
:100EB0004795880F97FB991F61F09F3F79F08795C1
:100EC0000895121613061406551FF2CF4695F1DF4A
:100ED00008C0161617061806991FF1CF86957105DA
:100EE000610508940895E894BB2766277727CB010E
:100EF00097F908950BD0C4CFB5DF28F0BADF18F00A
:100F0000952309F0A6CFABCF1124EECFCADFA0F313
:100F1000959FD1F3950F50E0551F629FF001729F8E
:100F2000BB27F00DB11D639FAA27F00DB11DAA1FAD
:100F3000649F6627B00DA11D661F829F2227B00DFA
:100F4000A11D621F739FB00DA11D621F839FA00D85
:100F5000611D221F749F3327A00D611D231F849FD5
:100F6000600D211D822F762F6A2F11249F5750402C
:100F70008AF0E1F088234AF0EE0FFF1FBB1F661FC7
:100F8000771F881F91505040A9F79E3F510570F080
:100F900060CFAACF5F3FECF3983EDCF38695779560
:100FA0006795B795F795E7959F5FC1F7FE2B880F7B
:100FB000911D9695879597F90895AA1BBB1B51E142
:100FC00007C0AA1FBB1FA617B70710F0A61BB70BB9
:100FD000881F991F5A95A9F780959095BC01CD015E
:100FE000089597FB072E16F4009406D077FD08D0DD
:100FF000E4DF07FC05D03EF4909581959F4F08955E
:10100000709561957F4F0895052E97FB16F4009417
:1010100006D057FD0CD01FD007FC09D07EF4909568
:101020008095709561957F4F8F4F9F4F0895509594
:101030004095309521953F4F4F4F5F4F0895A29FA8
:10104000B001B39FC001A39F01D0B29F700D811D5D
:101050001124911D0895A1E21A2EAA1BBB1BFD01AC
:101060000DC0AA1FBB1FEE1FFF1FA217B307E40787
:10107000F50720F0A21BB30BE40BF50B661F771FDF
:10108000881F991F1A9469F76095709580959095BF
:0E1090009B01AC01BD01CF010895F894FFCF84
:10109E00303030303030303000303030303030FFA3
:1010AE0020203A20203A2020200020203A20203AEA
:1010BE002020002020202020202020202020200062
:1010CE0053544F500052554E00563A2020250000E2
:00000001FF
