:1000000045C0000061C000005FC000005DC000008E
:100010005BC0000059C0000057C0000055C0000080
:1000200053C0000051C000004FC000004DC0000090
:100030004BC0000049C0000047C0000045C00000A0
:10004000C7C0000041C0000051C000003DC000001A
:100050003BC000005AC1000037C0000035C000009E
:1000600033C0000031C000002FC000002DC00000D0
:100070002BC0000029C0000027C0000025C00000E0
:1000800023C0000021C000001FC0000011241FBEBB
:10009000CFEFD0E1DEBFCDBF11E0A0E0B1E0E8EDF1
:1000A000F3E100E00BBF02C007900D92A839B10741
:1000B000D9F721E0A8E9B1E001C01D92AD3FB20738
:1000C000E1F728D60C94EA099BCFE199FECF9FBBBC
:1000D0008EBB6DBBF894E29AE19A78940895E19909
:1000E000FECF9FBB8EBBE09A8DB308951F920F92F7
:1000F0000FB60F9211240BB60F928F939F93EF932D
:10010000FF938CB18093F6018091F601833089F4DE
:10011000E091F301F091F4018091F601E652FE4F77
:10012000808381E08093F5011092F4011092F30135
:1001300012C0E091F301F091F4018091F601E652D2
:10014000FE4F80838091F3019091F401019690938A
:10015000F4018093F301FF91EF919F918F910F90A4
:100160000BBE0F900FBE0F901F9018951FBE1BB8AF
:1001700088E98AB986E0809395001092900083E325
:1001800089B980E88FBF08955D9BFECF982F915469
:100190009A3118F4805E8CB90895982F91569A314F
:1001A00018F480528CB908958CB908950F931F9359
:1001B000CF93DF93EC018C01075E1F4F8991E4DF41
:1001C000C017D107D9F7DF91CF911F910F910895F3
:1001D0001F920F920FB60F9211248F939F938091CD
:1001E000D8019091D90101969093D9018093D801BB
:1001F0008091D6019091D701892B49F08091D60149
:100200009091D70101969093D7018093D601809168
:10021000D2019091D301892B49F08091D201909124
:10022000D30101969093D3018093D2018091D001A4
:100230009091D101892B49F08091D0019091D10109
:1002400001969093D1018093D0018EEC82BF9F9153
:100250008F910F900FBE0F901F90189586E083BF6F
:100260008EEC82BF87B7816087BF789408958FEF47
:1002700087BB88BB08958FE097E20197F1F700C034
:100280000000E0E0F0E880818823ECF30895CF934C
:10029000C82FF1DFC0930080CF910895CF93C82F6E
:1002A000EADFC09300C0CF910895613108F060E1AA
:1002B0006150833008F082E090E4899F600D112442
:1002C000862F80548068E3CFCF93DF93EC01888141
:1002D000882329F02196E2DF89918111FCCFDF91FB
:1002E000CF91089580E885BF81E0D1DF88E3CFDF3B
:1002F00086E0CDDF80E1CBDF8CE0C9DF8FE19EE4DB
:100300000197F1F700C0000008951F920F920FB6F9
:100310000F9211242F933F934F938F939F9384B108
:1003200090E09093F8018093F70145B12091F70197
:100330003091F801942F80E0820F931F9093F80181
:100340008093F7019F918F914F913F912F910F9043
:100350000FBE0F901F90189580B38E3FB9F080B3F9
:100360008D3FB1F080B38B3FA9F080B3873FA1F000
:1003700080B38F3E99F080B38F3D91F080B38F3B77
:1003800089F080B38F3781F080E0089581E008958F
:1003900082E0089583E0089584E0089585E008955B
:1003A00086E0089587E0089588E0089580E090E071
:1003B00096DE80E090E093DE21E030E0833010F0C4
:1003C00020E030E0822F932F0895A82FB92FE0EA84
:1003D000F1E08AEC91E02D912193E817F907D9F724
:1003E0000895FC01208120939C01818180939D01CF
:1003F000089582E08093990110929A0180E380939E
:100400009B0180939E0181E380939F011092A00144
:1004100084E08093CA0183E08093CB01089582E059
:100420008093990110929A0180E380939B018093BD
:100430009E0192E390939F018093A0018093A1017C
:1004400084E08093CA0183E08093CB0108956AE041
:1004500070E064D76115710569F021E030E0EAE0F1
:10046000F0E02F5F3F4FCB01BF0158D761157105F9
:10047000C1F702C021E030E0822F932F0895CF937F
:10048000DF93EC01E4DF22E02093990120919801B1
:1004900020939A0120E320939B0120939E01806387
:1004A00080939F01C130D10531F480E38093A00196
:1004B0008093A1010AC0CE016AE070E02FD760638B
:1004C0006093A00180638093A10184E08093CA01BE
:1004D00083E08093CB01DF91CF91089582E08093F8
:1004E00099018091980180939A0180E380939B0108
:1004F00080939E0188E380939F0180910001809307
:10050000A001809101018093A1018091020180935B
:10051000A201809103018093A30180910401809343
:10052000A401809105018093A5018091060180932B
:10053000A601809107018093A70184E08093CA01FE
:1005400083E08093CB01089582E0809399018091AC
:10055000980180939A0180E380939B0180939E0190
:1005600086E380939F0180910D018093A00180918B
:100570000C018093A10180910B018093A2018091D5
:100580000A018093A401809109018093A5018091C3
:1005900008018093A30184E08093CA0183E08093E3
:1005A000CB0108958091D0019091D101833597407E
:1005B00030F48091D0019091D101892B51F461E008
:1005C00081E073DE88E56ADE1092D1011092D001DD
:1005D00008958091D0019091D101892B91F0809163
:1005E000D0019091D1018335974058F461E081E0CA
:1005F0005CDE83E453DE81E090E09093D101809350
:10060000D0010895CF93DF93CDB7DEB72C970FB607
:10061000F894DEBF0FBECDBF8CE0EFE4F1E0DE0169
:10062000119601900D928A95E1F761E082E03DDE3E
:10063000809100018983809101018A838091020168
:100640008B83809103018C83809104018D83809141
:1006500005018E83809106018F8380910701888731
:1006600080E289878A878B878C87CE0101962CDE72
:100670002C960FB6F894DEBF0FBECDBFDF91CF91A1
:10068000089580E487B98DEA86B9089585E791E0F9
:10069000A8DEAFDE89E991E089DD80E090E0FC0131
:1006A000E652FE4F1082019683339105C1F70895FB
:1006B000B6DE88E791E095DE8BE791E086DE89E99A
:1006C00091E074DD80E090E0FC01E652FE4F108284
:1006D000019683339105C1F7089500DF8AE891E020
:1006E00080DE89E991E062DD80E090E0FC01E65285
:1006F000FE4F1082019683339105C1F70895CF9381
:100700002BDEC82F8150883008F0EBC02091CC013F
:100710003091CD014C2F50E04217530709F4E8C047
:10072000C130C9F490910E0180910E018E7F981313
:1007300009C080910E01816080930E0180E3809357
:100740000001C5C080910E018E7F80930E0181E370
:1007500080930001BCC0C230C9F480910E01909119
:100760000E019D7F981309C080910E0182608093D5
:100770000E0180E380930101AAC080910E018D7F5C
:1007800080930E0181E380930101A1C0C330C9F4BD
:1007900080910E0190910E019B7F981309C080916A
:1007A0000E01846080930E0180E3809302018FC06C
:1007B00080910E018B7F80930E0181E38093020173
:1007C00086C0C430C9F480910E0190910E01977FCC
:1007D000981309C080910E01886080930E0180E318
:1007E0008093030174C080910E01877F80930E0176
:1007F00081E3809303016BC0C530C9F480910E0181
:1008000090910E019F7E981309C080910E01806126
:1008100080930E0180E38093040159C080910E0102
:100820008F7E80930E0181E38093040150C0C63017
:10083000C9F480910E0190910E019F7D981309C01B
:1008400080910E01806280930E0180E38093050108
:100850003EC080910E018F7D80930E0181E38093D5
:10086000050135C0C730C9F480910E0190910E0189
:100870009F7B981309C080910E01806480930E01C4
:1008800080E38093060123C080910E018F7B8093CB
:100890000E0181E3809306011AC0C830C1F4809133
:1008A0000E0190910E019F77981309C080910E015F
:1008B000806880930E0180E38093070108C08091D7
:1008C0000E018F7780930E0181E380930701809161
:1008D0000E0188BB02DF21E030E03093D10120938C
:1008E000D0018C2F90E09093CD018093CC018ADED3
:1008F000CF910895181619067CF420E030E0F90134
:10090000EF51FE4F4081F901E050FF4F40832F5FD0
:100910003F4F2817390799F780910001813331F44F
:1009200080910E018E7F80930E0105C080910E0193
:10093000816080930E0180910101813331F48091B7
:100940000E018D7F80930E0105C080910E018260A3
:1009500080930E0180910201813331F480910E0168
:100960008B7F80930E0105C080910E01846080937F
:100970000E0180910301813331F480910E01877F54
:1009800080930E0105C080910E01886080930E0156
:1009900080910401813331F480910E018F7E809328
:1009A0000E0105C080910E01806180930E0180913F
:1009B0000501813331F480910E018F7D80930E010A
:1009C00005C080910E01806280930E018091060126
:1009D000813331F480910E018F7B80930E0105C02D
:1009E00080910E01806480930E0180910701813314
:1009F00031F480910E018F7780930E0105C08091B4
:100A00000E01806880930E0180910E0188BB77CE25
:100A1000CF93DF93EC018EE791E0E3DCCE012FDD95
:100A200089E991E0C3DB80E090E0FC01E652FE4FF3
:100A30001082019683339105C1F7DF91CF9108951C
:100A40000F931F93CF93DF9300D000D01F92CDB7A9
:100A5000DEB78C0185E0ECE5F1E0DE011196019056
:100A60000D928A95E1F70436110511F403E610E0C2
:100A7000C801CEDF6CE081E018DC86E589838AE37B
:100A80008A83C8016AE070E049D460636B83806345
:100A90008C8385E28D83CE01019616DC0F900F903A
:100AA0000F900F900F90DF91CF911F910F910895AC
:100AB000E8DD369A8FE19EE40197F1F700C000006F
:100AC00086B186B96091F7017091F801882777FDAA
:100AD0008095982F20D320E030EC4FE754E485D266
:100AE00020E030E048EC52E4A2D3E7D28091F90153
:100AF0009091FA0186179707A1F07093FA0160931D
:100B0000F90181E090E09093D3018093D20190931A
:100B1000D1018093D0018091F9019091FA0190DF89
:100B2000349A089511DD81E891E05BDC89E991E078
:100B30003DDB80E090E0FC01E652FE4F1082019622
:100B400083339105C1F70895CF92DF92EF92FF9220
:100B50000F931F93CF93DF93CDB7DEB729970FB6CF
:100B6000F894DEBF0FBECDBF89E0E2E6F1E0DE0122
:100B7000119601900D928A95E1F78091D4019091A0
:100B8000D50160E871E5B6D39093D5018093D40187
:100B90008091D4019091D50160E17EE0ABD36B01EF
:100BA000E12CF12C8AE0C816D104E104F10454F0E0
:100BB000C701B6012AE030E040E050E0C2D3205D3A
:100BC000298302C080E38983C701B6012AE030E0AF
:100BD00040E050E0B6D3162F105D1A838091D40107
:100BE0009091D50160E17EE085D39093D50180930B
:100BF000D4012091D4013091D501A9E8B8E8BCD343
:100C000096958795929582958F7089279F708927F1
:100C10006C01E12CF12C8AE0C816D104E104F10446
:100C200054F0C701B6012AE030E040E050E089D33B
:100C3000205D2C8302C080E38C83C701B6012AE0CB
:100C400030E040E050E07DD3062F005D0D83409101
:100C5000D4015091D5019A01A9E8B8E88DD39695B1
:100C60008795929582958F7089279F7089276CE36D
:100C7000689F9001699F300D1124CA01821B930B5C
:100C80009093D5018093D401C090D401D090D50128
:100C9000E12CF12C8AE0C816D104E104F10454F0EF
:100CA000C701B6012AE030E040E050E04AD3205DC1
:100CB0002F8302C080E38F83C701B6012AE030E0B2
:100CC00040E050E03ED3605D6887898180930D01EC
:100CD00010930C018C8180930B0100930A018F818A
:100CE000809309016093080163E081E0DEDACE01C0
:100CF0000196EADA17DF29960FB6F894DEBF0FBE29
:100D0000CDBFDF91CF911F910F91FF90EF90DF90BA
:100D1000CF900895CF93DF93CDB7DEB728970FB666
:100D2000F894DEBF0FBECDBF11BA8FEF87BB9FDA3D
:100D3000D9DA94DA65E081E0B8DA84E891E0C4DADF
:100D400064E082E0B2DA8DE891E0BEDA83E090E020
:100D50002091D8013091D90121373240C8F3209138
:100D6000D4013091D5012F5F3F4F3093D5012093AF
:100D7000D4011092D9011092D801019749F7B2DA43
:100D8000F5D9E2DE95DC6894992493F80F2EFDEDF9
:100D9000AF2EF1E0BF2EF02D0F2EFFEDCF2EF1E0A4
:100DA000DF2EF02D0F2EFEEDEF2EF1E0FF2EF02DB9
:100DB00000EE11E08091CE019091CF01892B09F0D6
:100DC00064C0F4DA9093CF018093CE01019709F0CB
:100DD0003EC0ECE6F1E0DE011196892D01900D9206
:100DE0008A95E1F780E090E07AD9898380930D01BC
:100DF00081E090E074D98A8380930C0182E090E0D6
:100E00006ED98C8380930B0183E090E068D98D8349
:100E100080930A0184E090E062D98F838093090176
:100E200085E090E05CD988878093080163E081E0E9
:100E30003CDACE01019648DA85E791E0D2DA80917A
:100E4000980190E0D6DA89E991E0B0D91EC06091AE
:100E50000D0180E090E039D960910C0181E090E0D3
:100E600034D960910B0182E090E02FD960910A01A2
:100E700083E090E02AD96091090184E090E025D9CF
:100E80006091080185E090E020D98091D80190918F
:100E9000D9018137924070F08091D4019091D501B1
:100EA00001969093D5018093D4011092D9011092AC
:100EB000D8014ADE8091D6019091D701843C9940B7
:100EC00028F042DE1092D7011092D6018091D20113
:100ED0009091D301823E944078F036DE80910E01ED
:100EE00088BBFBDB81E090E09093D1018093D0013F
:100EF0001092D3011092D20155DBDADD00DC809133
:100F0000F501813009F06BC08091F9019091FA01EF
:100F100097DD81E090E09093D1018093D001F501BD
:100F2000808190E0C097F60180803C01660C771CC0
:100F3000880F991F880F991F880F991F860D971D7D
:100F4000F7016080712CF0E36F1A7108680E791E4A
:100F5000F8015080F1E06F16710421F497DB1092D4
:100F6000F5011CC02AE06216710451F4A1DB81E096
:100F700090E09093D1018093D0011092F5012FC0A1
:100F800044E16416710451F4A8DB81E090E0909391
:100F9000D1018093D0011092F50121C085E168163E
:100FA0007104E9F4282D30E020533109C901880F7C
:100FB000991F220F331F220F331F220F331F280FB9
:100FC000391F852D90E0C097820F931F93DC81E03D
:100FD00090E09093D1018093D0011092F50180911F
:100FE000F9019091FA012CDDE5CE0CD0E6C0DED0FF
:100FF00040F0D5D030F021F45F3F19F0C7C0511157
:1010000010C1CAC0EBD098F39923C9F35523B1F3AB
:10101000951B550BBB27AA2762177307840738F067
:101020009F5F5F4F220F331F441FAA1FA9F333D0C6
:101030000E2E3AF0E0E830D091505040E695001C7A
:10104000CAF729D0FE2F27D0660F771F881FBB1F36
:10105000261737074807AB07B0E809F0BB0B802D10
:10106000BF01FF2793585F4F2AF09E3F510568F05C
:101070008DC0D7C05F3FECF3983EDCF38695779543
:101080006795B795F7959F5FC9F7880F911D96955E
:10109000879597F90895E1E0660F771F881FBB1FBA
:1010A000621773078407BA0720F0621B730B840B67
:1010B000BA0BEE1F88F7E095089598D088F09F57F7
:1010C00090F0B92F9927B751A0F0D1F0660F771F94
:1010D000881F991F1AF0BA95C9F712C0B13081F074
:1010E0009FD0B1E008959CC0672F782F8827B85F04
:1010F00039F0B93FCCF3869577956795B395D9F7D5
:101100003EF490958095709561957F4F8F4F9F4FDE
:101110000895E89409C097FB3EF4909580957095EA
:1011200061957F4F8F4F9F4F9923A9F0F92F96E933
:10113000BB279395F695879577956795B795F111A8
:10114000F8CFFAF4BB0F11F460FF1BC06F5F7F4F45
:101150008F4F9F4F16C0882311F096E911C0772357
:1011600021F09EE8872F762F05C0662371F096E860
:10117000862F70E060E02AF09A95660F771F881F2F
:10118000DAF7880F9695879597F9089597F99F67ED
:1011900080E870E060E008959FEF80EC08950024FF
:1011A0000A941616170618060906089500240A94CC
:1011B00012161306140605060895092E0394000C52
:1011C00011F4882352F0BB0F40F4BF2B11F460FFE1
:1011D00004C06F5F7F4F8F4F9F4F089557FD90580A
:1011E000440F551F59F05F3F71F04795880F97FBEB
:1011F000991F61F09F3F79F08795089512161306A5
:101200001406551FF2CF4695F1DF08C016161706D3
:101210001806991FF1CF8695710561050894089508
:10122000E894BB2766277727CB0197F908950BD061
:10123000C4CFB5DF28F0BADF18F0952309F0A6CFA8
:10124000ABCF1124EECFCADFA0F3959FD1F3950F5A
:1012500050E0551F629FF001729FBB27F00DB11D3A
:10126000639FAA27F00DB11DAA1F649F6627B00DCA
:10127000A11D661F829F2227B00DA11D621F739FB3
:10128000B00DA11D621F839FA00D611D221F749FC1
:101290003327A00D611D231F849F600D211D822F08
:1012A000762F6A2F11249F5750408AF0E1F088234F
:1012B0004AF0EE0FFF1FBB1F661F771F881F91505C
:1012C0005040A9F79E3F510570F060CFAACF5F3F15
:1012D000ECF3983EDCF3869577956795B795F7958F
:1012E000E7959F5FC1F7FE2B880F911D9695879517
:1012F00097F90895AA1BBB1B51E107C0AA1FBB1F8A
:10130000A617B70710F0A61BB70B881F991F5A9591
:10131000A9F780959095BC01CD01089597FB072E04
:1013200016F4009406D077FD08D0E4DF07FC05D062
:101330003EF4909581959F4F0895709561957F4FEC
:101340000895052E97FB16F4009406D057FD0CD097
:101350001FD007FC09D07EF490958095709561951B
:101360007F4F8F4F9F4F0895509540953095219511
:101370003F4F4F4F5F4F0895A29FB001B39FC001F1
:10138000A39F01D0B29F700D811D1124911D08955E
:10139000A1E21A2EAA1BBB1BFD010DC0AA1FBB1F79
:1013A000EE1FFF1FA217B307E407F50720F0A21BEB
:1013B000B30BE40BF50B661F771F881F991F1A9458
:1013C00069F760957095809590959B01AC01BD0182
:0813D000CF010895F894FFCF4E
:1013D8003030303030303030303030303030FF1D49
:1013E800051D0B110E0A0E040A11000404041F1F28
:1013F8000105041F040A0400000A15110A0400125A
:10140800121E121E000F011010181010000000010B
:10141800091D0915150100011D15151D01080F20CD
:10142800202020202020202020202000563A202084
:10143800250020203A20203A2020200020203A2091
:10144800203A202000303100313000303000333075
:1014580000343000323031313038323000595520C4
:081468004A4F4F4859554E0050
:00000001FF
